:1000000008308A0000280000D424CD223A100000D5
:10001000201020100001C420D4223A00201020100B
:100020000000201020100001201020100000C82027
:1000300050285910C4205910A110A11021100001FE
:100040004C22CE204D1043244127CE224C102010AC
:100050008000A021C8244E242021C127202AC82A9C
:1000600043102010000045183728081038280814BD
:10007000831608108312C5183F280711402807155A
:1000800020112008831687008312451949288710FC
:100090004A288714A0102008831687008312C519E8
:1000A00053280710542807142010200883168700AF
:1000B00083120800453084008313000803196D285B
:1000C0000630F800F701F70B6328F80B62287B3045
:1000D000F700F70B6928800B60280800831688104A
:1000E000831288140430F700F70B742877288316DE
:1000F0008810831288100330C5005A200800C40EEF
:100100004408C50033206E20C40E4408C5003320C7
:100110006E200800C5013320C830C5005A20831660
:100120000811831208110330C50033206E206E20A1
:100130006E200230C50033206E202C30C4007F209A
:100140000C30C4007F200630C4007F200130C40082
:100150007F208A150A1218280830F800000087113D
:10016000A01120088316870000008312C20D071219
:10017000031CC0282016200883168700C428831279
:10018000201220088316870000008312A015200883
:10019000831687008312871DCB28F80BAE2800003A
:1001A0008711A011200883168700000083122016F3
:1001B000200883168700000000008312A015200885
:1001C000831687008312871DE328F8010000071AB1
:1001D00078148711A0112008831687008312071254
:1001E0002012200883168700831208000830C400FC
:1001F0007708C500201620088316870000008312A8
:10020000A0152008831687008312871D0529071A69
:100210000314071E0310F80D0000A0112008831618
:10022000870083128711C40BFA2820162008831632
:1002300087000000831207124508031924292012A1
:1002400020088316870083120000A015200883165B
:1002500087008312871D2A2900008711A01120081A
:1002600083168700000083120712201220088316CD
:1002700087008312080020162008831687000000DC
:100280008312A0152008831687000000831207122E
:100290002012200883168700000083128711A01106
:1002A000200883168700D0308312C200AC20C20120
:1002B000AC20201620088316870000008312A015AA
:1002C00020088316870000008312871D6529071206
:1002D0002012200883168700000083128711A011C6
:1002E000200883168700D1308312C200AC20F701AA
:1002F000F6207808BC002012200883168700000032
:100300008312A0152008831687008312871D862973
:1003100000008A29000020162008831687000000AC
:1003200083123C0880390319CC29BC1320162008FD
:100330008316870000008312A0152008831687000B
:100340000000831207122012200883168700000085
:1003500083128711A0112008831687008312C2011F
:10036000AC20C201AC203C08C200AC202012200806
:100370008316870000008312A015200883168700CB
:100380008312871DC1290000C529000020162008FE
:1003900083168700000083128A150A121B28831611
:1003A0000811831208154308C4007F208316081122
:1003B0008312081108000B08C0008B138316031763
:1003C0008C170C140000000083120313C01B8B1742
:1003D00003170C087F3903192F2A0313C0000317D2
:1003E0000D080313C10003170F080313C2004008D0
:1003F000C300CF21410803178D00031342080317E0
:100400008F0003130B08C3008B13831603178C177D
:100410000C140000000083120313C31B8B17031777
:100420000C0D0E0D7F3903192F2A0313C00003177B
:100430000D080313C10003170F080313C20040087F
:10044000C300CF21410803178D000313420803178F
:100450008F008D0A03198F0A0313DB290317031377
:100460000800201620088316870000008312A015BC
:10047000200883168700000083120712201220082C
:1004800083168700000083128711A01120088316AD
:100490008700D0308312C200AC20C201AC202016ED
:1004A00020088316870000008312A01520088316F9
:1004B000870000008312871D5B2A07122012200884
:1004C00083168700000083128711A011200883166D
:1004D0008700D1308312C200AC204008FA003F08E8
:1004E00084008313401883170130F700F620780842
:1004F000800001303F07F8004008FA000318FA0AAC
:100500007808840083137A1883170130F700F620E7
:100510007808800002303F07F8004008FA0003180E
:10052000FA0A7808840083137A1883170130F700D9
:10053000F6207808800003303F07F8004008FA00F2
:100540000318FA0A7808840083137A188317013095
:10055000F700F6207808800004303F07F8004008D4
:10056000FA000318FA0A7808840083137A188317AC
:100570000130F700F6207808800005303F07F800CA
:100580004008FA000318FA0A7808840083137A18DE
:1005900083170130F700F6207808800006303F0707
:1005A000F8004008FA000318FA0A78088400831358
:1005B0007A188317F701F6207808800020122008A7
:1005C0008316870000008312A01520088316870079
:1005D0008312871DE92A0000ED2A0000201620085A
:1005E000831687000000831208002E0EA1000F3032
:1005F000A1052E080F39A2002F0EA3000F30A3056E
:100600002F080F39A400300EA5000F30A5053008C3
:100610000F39A6003108A700320EA8000F30A80538
:1006200032080F39A900330EAA000F30AA0533088B
:100630000F39AB00340EAC000F30AC0534080F3965
:10064000AD0008008030C4007F20043003178D0007
:1006500000308F000313DB213F0B352B5F30C300CD
:10066000CF215F30C300CF213F2B30302507C000A2
:10067000C300CF2130302607C000C300CF213A305D
:10068000C300CF213F08023C031D4D2B5F30C30048
:10069000CF215F30C300CF21572B30302307C0005C
:1006A000C300CF2130302407C000C300CF213A302F
:1006B000C300CF213F08033C031D652B5F30C300FF
:1006C000CF215F30C300CF216F2B30302107C00016
:1006D000C300CF2130302207C000C300CF21083033
:1006E00003178D0000308F000313DB21C030C400DE
:1006F0007F200B3003178D0000308F000313DB21A8
:100700003F08043C031D8B2B5F30C300CF215F30BB
:10071000C300CF21952B30302807C000C300CF2164
:1007200030302907C000C300CF212F30C300CF21B4
:100730003F08053C031DA32B5F30C300CF215F3072
:10074000C300CF21AD2B30302A07C000C300CF211A
:1007500030302B07C000C300CF212F30C300CF2182
:100760003230C300CF213030C300CF213F08063CD8
:10077000031DC12B5F30C300CF215F30C300CF21E9
:10078000CB2B30302C07C000C300CF2130302D07D9
:10079000C000C300CF210E3003178D0000308F0042
:1007A0000313DB210800F701F8013F08031040188C
:1007B000F707F70CF80CC018F707F70CF80C4019FE
:1007C000F707F70CF80CC019F707F70CF80C401AEC
:1007D000F707F70CF80CC01AF707F70CF80C401BDA
:1007E000F707F70CF80CC01BF707F70CF80C08001C
:1007F0004008F8013F020318002C3F08F7000C2CBA
:10080000F7010830C100BF0DF70D4008770203184B
:10081000F700F80DC10B032C08000130BC00BD012E
:10082000C0012E30BF003122F5223D08043C031CDC
:100830001C2CBF0122231F2C3C08BF002223BD0A11
:100840003D08093C031CBD018316861483128618DB
:10085000EB2C831686148312861C292CBD010130D3
:100860003C02FA3E0318EB2C063EA02E2508BF00E2
:100870000A30C000D32326087807BE003E08163C85
:10088000031C442CBE0A452CBE013E08BF000A30A2
:10089000C000F8237808A5003E08BF000A30C00059
:1008A000F8237708A600EB2C2308BF000A30C0000D
:1008B000D32324087807BE003E083A3C031C622C70
:1008C000BE0A632CBE013E08BF000A30C000F823F8
:1008D0007808A3003E08BF000A30C000F82377085C
:1008E000A400EB2C2108BF000A30C000D32322084B
:1008F0007807BE003E083A3C031C802CBE0A812CBF
:10090000BE013E08BF000A30C000F8237808A100ED
:100910003E08BF000A30C000F8237708A200EB2C85
:100920002808BF000A30C000D32329087807BE007A
:100930003E081E3C031C9E2CBE0AA02C0130BE00AB
:100940003E08BF000A30C000F8237808A8003E081F
:10095000BF000A30C000F8237708A900EB2C2A0852
:10096000BF000A30C000D3232B087807BE003E0822
:100970000B3C031CBD2CBE0ABF2C0130BE003E0840
:10098000BF000A30C000F8237808AA003E08BF0064
:100990000A30C000F8237708AB00EB2C2C08BF000E
:1009A0000A30C000D3232D087807BE003E08623C01
:1009B000031CDC2CBE0ADD2CBE013E08BF000A3041
:1009C000C000F8237808AC003E08BF000A30C00021
:1009D000F8237708AD008316061583120619B22D89
:1009E000831606158312061DF02CBD0101303C0252
:1009F000FA3E0318B22D063EAA2E2508BF000A3083
:100A0000C000D32326087807BE00BE0803190A2DAC
:100A1000BE030C2D1730BE003E08BF000A30C000D8
:100A2000F8237808A5003E08BF000A30C000F8236C
:100A30007708A600B22D2308BF000A30C000D323D8
:100A400024087807BE00BE080319282DBE032A2DEE
:100A50003B30BE003E08BF000A30C000F8237808D3
:100A6000A3003E08BF000A30C000F8237708A400A6
:100A7000B22D2108BF000A30C000D3232208780716
:100A8000BE00BE080319462DBE03482D3B30BE00F4
:100A90003E08BF000A30C000F8237808A1003E08D5
:100AA000BF000A30C000F8237708A200B22D280842
:100AB000BF000A30C000D32329087807BE003E08D3
:100AC000013C0318652DBE03672D1F30BE003E0894
:100AD000BF000A30C000F8237808A8003E08BF0015
:100AE0000A30C000F8237708A900B22D2A08BF00F9
:100AF0000A30C000D3232B087807BE003E08013C13
:100B00000318842DBE03862D0C30BE003E08BF00A6
:100B10000A30C000F8237808AA003E08BF000A3057
:100B2000C000F8237708AB00B22D2C08BF000A30B4
:100B3000C000D3232D087807BE00BE080319A22DDC
:100B4000BE03A42D6330BE003E08BF000A30C000C3
:100B5000F8237808AC003E08BF000A30C000F82334
:100B60007708AD008316061483120618C32D83166A
:100B700006148312061CB72D0530BD00BC0A3C08C4
:100B8000063C031CCF2D8316861583128619CE2DA5
:100B9000831686158312861DC82DCF2D152C210E88
:100BA000F700F030F70577082204AE00230EF700B7
:100BB000F030F70577082404AF00250EF700F03079
:100BC000F70577082604B0002708B100280EF700C3
:100BD000F030F70577082904B2002A0EF700F0304C
:100BE000F70577082B04B3002C0EF700F030F7055B
:100BF00077082D04B400C0012E30BF002016200855
:100C00008316870000008312A01520088316870032
:100C100000008312071220122008831687000000AC
:100C200083128711A011200883168700D030831209
:100C3000C200AC20C201AC204008FA003F0884008A
:100C40008313401883170008C100C200AC20013094
:100C50003F07F8004008FA000318FA0A78088400F1
:100C600083137A1883170008C100C200AC20023039
:100C70003F07F8004008FA000318FA0A78088400D1
:100C800083137A1883170008C100C200AC20033018
:100C90003F07F8004008FA000318FA0A78088400B1
:100CA00083137A1883170008C100C200AC200430F7
:100CB0003F07F8004008FA000318FA0A7808840091
:100CC00083137A1883170008C100C200AC200530D6
:100CD0003F07F8004008FA000318FA0A7808840071
:100CE00083137A1883170008C100C200AC200630B5
:100CF0003F07F8004008FA000318FA0A7808840051
:100D000083137A1883170008C100C200AC20201298
:100D100020088316870000008312A0152008831680
:100D200087008312871D922E0000962E0000201649
:100D3000200883168700000083128A150A128A2869
:100D40000A108A140A158207362C542C722C902C07
:100D5000AF2CCE2C0A108A140A158207FD2C1B2DED
:100D6000392D572D762D952DC030C4007F201130A0
:100D700003178D0000308F000313DB213E0BC72EBD
:100D80005F30C300CF215F30C300CF21DB2E350899
:100D9000BF000A30C000F82330307807BF00C3001E
:100DA000CF213508BF000A30C000F8233030770764
:100DB000BF00C300CF213A30C300CF213E08023C20
:100DC000031DE92E5F30C300CF215F30C300CF2168
:100DD000FD2E3608BF000A30C000F82330307807F7
:100DE000BF00C300CF213608BF000A30C000F8237F
:100DF00030307707BF00C300CF213A30C300CF2186
:100E00003E08033C031D0B2F5F30C300CF215F3032
:100E1000C300CF211F2F3708BF000A30C000F823BE
:100E200030307807BF00C300CF213708BF000A3039
:100E3000C000F82330307707BF00C300CF21143043
:100E400003178D0000308F000313DB2108000130F1
:100E5000BC00BD018030C4007F20293003178D0005
:100E600000308F000313DB213D08043C031C3B2FA3
:100E7000BE01B4263E2F3C08BE00B426BD0A3D0884
:100E8000093C031CBD018316861483128618702F3B
:100E9000831686148312861C482FBD013C08013A34
:100EA0000319592F033A0319612F013A0319692FC6
:100EB000702F3508163C031C5F2FB50A602FB50153
:100EC000702F36083A3C031C672FB60A682FB6010C
:100ED000702F37083A3C031C6F2FB70A702FB701E9
:100EE00083160615831206199D2F83160615831285
:100EF000061D752FBD013C08013A0319862F033AE0
:100F000003198E2F013A0319962F9D2FB508031947
:100F10008B2FB5038D2F1730B5009D2FB608031901
:100F2000932FB603952F3B30B6009D2FB7080319BA
:100F30009B2FB7039D2F3B30B70083168615831276
:100F40008619AE2F831686158312861DA22F0530B3
:100F5000BD00BC0A3C08033C031CBA2F83160614D0
:100F600083120618B92F831606148312061CB32F9A
:0A0F7000BA2F342F8A150A129F28A9
:1010000003081F398300FF30A000B501B601B70106
:10101000B801BA01B90183161F149F141F159F113F
:1010200007309C0083130510831205148A118A2847
:101030008A158A113B298A158030C4008A117F20C5
:101040008A15173003178D0000308F008A110313A3
:10105000DB218A15C030C4008A117F208A15203018
:1010600003178D0000308F008A110313DB218A15CE
:101070000C30BC00FA30C5008A115A208A15BC0B0E
:101080003A28C0012E30BF008A1131228A158A11F8
:10109000F5228A15BF018A1122238A1522083B02F4
:1010A00003197E282208BB002508BF000A30C000B3
:1010B0008A11D3238A15260878073502031D7E2856
:1010C0002308BF000A30C0008A11D3238A152408E0
:1010D00078073602031D7E282108BF000A30C000B1
:1010E0008A11D3238A15220878073702031D7E2828
:1010F00083168811831288150130B80083160614F0
:10110000831206188B28831606148312061C832864
:101110008A110D2C8A158316861583128619A0282C
:10112000831686158312861D9028380B9D288316FA
:10113000881183128811B801A0288A11272F8A15D7
:0411400041286300DF
:02400E00422F3F
:00000001FF
;PIC16F877A
;CRC=415A  CREATED="15-Jun-22 23:01"
